{
  "contractName": "SimpleNFT",
  "abi": [
    {
      "inputs": [],
      "stateMutability": "nonpayable",
      "type": "constructor"
    },
    {
      "anonymous": false,
      "inputs": [
        {
          "indexed": true,
          "internalType": "address",
          "name": "owner",
          "type": "address"
        },
        {
          "indexed": true,
          "internalType": "address",
          "name": "approved",
          "type": "address"
        },
        {
          "indexed": true,
          "internalType": "uint256",
          "name": "tokenId",
          "type": "uint256"
        }
      ],
      "name": "Approval",
      "type": "event"
    },
    {
      "anonymous": false,
      "inputs": [
        {
          "indexed": true,
          "internalType": "address",
          "name": "owner",
          "type": "address"
        },
        {
          "indexed": true,
          "internalType": "address",
          "name": "operator",
          "type": "address"
        },
        {
          "indexed": false,
          "internalType": "bool",
          "name": "approved",
          "type": "bool"
        }
      ],
      "name": "ApprovalForAll",
      "type": "event"
    },
    {
      "anonymous": false,
      "inputs": [
        {
          "indexed": true,
          "internalType": "address",
          "name": "from",
          "type": "address"
        },
        {
          "indexed": true,
          "internalType": "address",
          "name": "to",
          "type": "address"
        },
        {
          "indexed": true,
          "internalType": "uint256",
          "name": "tokenId",
          "type": "uint256"
        }
      ],
      "name": "Transfer",
      "type": "event"
    },
    {
      "inputs": [
        {
          "internalType": "uint256",
          "name": "",
          "type": "uint256"
        }
      ],
      "name": "_listed",
      "outputs": [
        {
          "internalType": "uint256",
          "name": "id",
          "type": "uint256"
        },
        {
          "internalType": "uint256",
          "name": "price",
          "type": "uint256"
        },
        {
          "internalType": "bool",
          "name": "isForSale",
          "type": "bool"
        }
      ],
      "stateMutability": "view",
      "type": "function",
      "constant": true
    },
    {
      "inputs": [],
      "name": "_tokenIds",
      "outputs": [
        {
          "internalType": "uint256",
          "name": "_value",
          "type": "uint256"
        }
      ],
      "stateMutability": "view",
      "type": "function",
      "constant": true
    },
    {
      "inputs": [
        {
          "internalType": "address",
          "name": "to",
          "type": "address"
        },
        {
          "internalType": "uint256",
          "name": "tokenId",
          "type": "uint256"
        }
      ],
      "name": "approve",
      "outputs": [],
      "stateMutability": "nonpayable",
      "type": "function"
    },
    {
      "inputs": [
        {
          "internalType": "address",
          "name": "owner",
          "type": "address"
        }
      ],
      "name": "balanceOf",
      "outputs": [
        {
          "internalType": "uint256",
          "name": "",
          "type": "uint256"
        }
      ],
      "stateMutability": "view",
      "type": "function",
      "constant": true
    },
    {
      "inputs": [
        {
          "internalType": "uint256",
          "name": "tokenId",
          "type": "uint256"
        }
      ],
      "name": "getApproved",
      "outputs": [
        {
          "internalType": "address",
          "name": "",
          "type": "address"
        }
      ],
      "stateMutability": "view",
      "type": "function",
      "constant": true
    },
    {
      "inputs": [
        {
          "internalType": "address",
          "name": "owner",
          "type": "address"
        },
        {
          "internalType": "address",
          "name": "operator",
          "type": "address"
        }
      ],
      "name": "isApprovedForAll",
      "outputs": [
        {
          "internalType": "bool",
          "name": "",
          "type": "bool"
        }
      ],
      "stateMutability": "view",
      "type": "function",
      "constant": true
    },
    {
      "inputs": [],
      "name": "name",
      "outputs": [
        {
          "internalType": "string",
          "name": "",
          "type": "string"
        }
      ],
      "stateMutability": "view",
      "type": "function",
      "constant": true
    },
    {
      "inputs": [
        {
          "internalType": "uint256",
          "name": "tokenId",
          "type": "uint256"
        }
      ],
      "name": "ownerOf",
      "outputs": [
        {
          "internalType": "address",
          "name": "",
          "type": "address"
        }
      ],
      "stateMutability": "view",
      "type": "function",
      "constant": true
    },
    {
      "inputs": [
        {
          "internalType": "address",
          "name": "from",
          "type": "address"
        },
        {
          "internalType": "address",
          "name": "to",
          "type": "address"
        },
        {
          "internalType": "uint256",
          "name": "tokenId",
          "type": "uint256"
        }
      ],
      "name": "safeTransferFrom",
      "outputs": [],
      "stateMutability": "nonpayable",
      "type": "function"
    },
    {
      "inputs": [
        {
          "internalType": "address",
          "name": "from",
          "type": "address"
        },
        {
          "internalType": "address",
          "name": "to",
          "type": "address"
        },
        {
          "internalType": "uint256",
          "name": "tokenId",
          "type": "uint256"
        },
        {
          "internalType": "bytes",
          "name": "_data",
          "type": "bytes"
        }
      ],
      "name": "safeTransferFrom",
      "outputs": [],
      "stateMutability": "nonpayable",
      "type": "function"
    },
    {
      "inputs": [
        {
          "internalType": "address",
          "name": "operator",
          "type": "address"
        },
        {
          "internalType": "bool",
          "name": "approved",
          "type": "bool"
        }
      ],
      "name": "setApprovalForAll",
      "outputs": [],
      "stateMutability": "nonpayable",
      "type": "function"
    },
    {
      "inputs": [
        {
          "internalType": "bytes4",
          "name": "interfaceId",
          "type": "bytes4"
        }
      ],
      "name": "supportsInterface",
      "outputs": [
        {
          "internalType": "bool",
          "name": "",
          "type": "bool"
        }
      ],
      "stateMutability": "view",
      "type": "function",
      "constant": true
    },
    {
      "inputs": [],
      "name": "symbol",
      "outputs": [
        {
          "internalType": "string",
          "name": "",
          "type": "string"
        }
      ],
      "stateMutability": "view",
      "type": "function",
      "constant": true
    },
    {
      "inputs": [
        {
          "internalType": "uint256",
          "name": "tokenId",
          "type": "uint256"
        }
      ],
      "name": "tokenURI",
      "outputs": [
        {
          "internalType": "string",
          "name": "",
          "type": "string"
        }
      ],
      "stateMutability": "view",
      "type": "function",
      "constant": true
    },
    {
      "inputs": [
        {
          "internalType": "address",
          "name": "from",
          "type": "address"
        },
        {
          "internalType": "address",
          "name": "to",
          "type": "address"
        },
        {
          "internalType": "uint256",
          "name": "tokenId",
          "type": "uint256"
        }
      ],
      "name": "transferFrom",
      "outputs": [],
      "stateMutability": "nonpayable",
      "type": "function"
    },
    {
      "inputs": [
        {
          "internalType": "string",
          "name": "tokenURI",
          "type": "string"
        },
        {
          "internalType": "uint256",
          "name": "price",
          "type": "uint256"
        },
        {
          "internalType": "address",
          "name": "custodian",
          "type": "address"
        }
      ],
      "name": "mintNFT",
      "outputs": [],
      "stateMutability": "nonpayable",
      "type": "function"
    }
  ],
  "bytecode": "0x60806040523480156200001157600080fd5b506040518060400160405280600981526020017f53696d706c654e465400000000000000000000000000000000000000000000008152506040518060400160405280600481526020017f534e465400000000000000000000000000000000000000000000000000000000815250816000908051906020019062000096929190620000b8565b508060019080519060200190620000af929190620000b8565b505050620001cd565b828054620000c69062000168565b90600052602060002090601f016020900481019282620000ea576000855562000136565b82601f106200010557805160ff191683800117855562000136565b8280016001018555821562000136579182015b828111156200013557825182559160200191906001019062000118565b5b50905062000145919062000149565b5090565b5b80821115620001645760008160009055506001016200014a565b5090565b600060028204905060018216806200018157607f821691505b602082108114156200019857620001976200019e565b5b50919050565b7f4e487b7100000000000000000000000000000000000000000000000000000000600052602260045260246000fd5b612d5d80620001dd6000396000f3fe608060405234801561001057600080fd5b50600436106101005760003560e01c806370a0823111610097578063b88d4fde11610066578063b88d4fde146102ab578063c87b56dd146102c7578063e985e9c5146102f7578063ec22b70d1461032757610100565b806370a082311461022357806395d89b4114610253578063a22cb46514610271578063aa46a4001461028d57610100565b806323b872dd116100d357806323b872dd1461019f57806342842e0e146101bb5780636352211e146101d757806363bae8c01461020757610100565b806301ffc9a71461010557806306fdde0314610135578063081812fc14610153578063095ea7b314610183575b600080fd5b61011f600480360381019061011a9190611d6c565b610359565b60405161012c91906121d9565b60405180910390f35b61013d61043b565b60405161014a91906121f4565b60405180910390f35b61016d60048036038101906101689190611e25565b6104cd565b60405161017a9190612172565b60405180910390f35b61019d60048036038101906101989190611d30565b610552565b005b6101b960048036038101906101b49190611c2a565b61066a565b005b6101d560048036038101906101d09190611c2a565b6106ca565b005b6101f160048036038101906101ec9190611e25565b6106ea565b6040516101fe9190612172565b60405180910390f35b610221600480360381019061021c9190611dbe565b61079c565b005b61023d60048036038101906102389190611bc5565b61085d565b60405161024a9190612416565b60405180910390f35b61025b610915565b60405161026891906121f4565b60405180910390f35b61028b60048036038101906102869190611cf4565b6109a7565b005b610295610b28565b6040516102a29190612416565b60405180910390f35b6102c560048036038101906102c09190611c79565b610b34565b005b6102e160048036038101906102dc9190611e25565b610b96565b6040516102ee91906121f4565b60405180910390f35b610311600480360381019061030c9190611bee565b610ce8565b60405161031e91906121d9565b60405180910390f35b610341600480360381019061033c9190611e25565b610d7c565b60405161035093929190612431565b60405180910390f35b60007f80ac58cd000000000000000000000000000000000000000000000000000000007bffffffffffffffffffffffffffffffffffffffffffffffffffffffff1916827bffffffffffffffffffffffffffffffffffffffffffffffffffffffff1916148061042457507f5b5e139f000000000000000000000000000000000000000000000000000000007bffffffffffffffffffffffffffffffffffffffffffffffffffffffff1916827bffffffffffffffffffffffffffffffffffffffffffffffffffffffff1916145b80610434575061043382610dc3565b5b9050919050565b60606000805461044a906126a3565b80601f0160208091040260200160405190810160405280929190818152602001828054610476906126a3565b80156104c35780601f10610498576101008083540402835291602001916104c3565b820191906000526020600020905b8154815290600101906020018083116104a657829003601f168201915b5050505050905090565b60006104d882610e2d565b610517576040517f08c379a000000000000000000000000000000000000000000000000000000000815260040161050e90612376565b60405180910390fd5b6004600083815260200190815260200160002060009054906101000a900473ffffffffffffffffffffffffffffffffffffffff169050919050565b600061055d826106ea565b90508073ffffffffffffffffffffffffffffffffffffffff168373ffffffffffffffffffffffffffffffffffffffff1614156105ce576040517f08c379a00000000000000000000000000000000000000000000000000000000081526004016105c5906123d6565b60405180910390fd5b8073ffffffffffffffffffffffffffffffffffffffff166105ed610e99565b73ffffffffffffffffffffffffffffffffffffffff16148061061c575061061b81610616610e99565b610ce8565b5b61065b576040517f08c379a0000000000000000000000000000000000000000000000000000000008152600401610652906122b6565b60405180910390fd5b6106658383610ea1565b505050565b61067b610675610e99565b82610f5a565b6106ba576040517f08c379a00000000000000000000000000000000000000000000000000000000081526004016106b1906123f6565b60405180910390fd5b6106c5838383611038565b505050565b6106e583838360405180602001604052806000815250610b34565b505050565b6000806002600084815260200190815260200160002060009054906101000a900473ffffffffffffffffffffffffffffffffffffffff169050600073ffffffffffffffffffffffffffffffffffffffff168173ffffffffffffffffffffffffffffffffffffffff161415610793576040517f08c379a000000000000000000000000000000000000000000000000000000000815260040161078a906122f6565b60405180910390fd5b80915050919050565b60006107a86007611294565b90506107b433826112a2565b6107be81856112c0565b6107c88282610552565b600060405180606001604052808381526020018581526020016001151581525090506008819080600181540180825580915050600190039060005260206000209060030201600090919091909150600082015181600001556020820151816001015560408201518160020160006101000a81548160ff02191690831515021790555050506108566007611334565b5050505050565b60008073ffffffffffffffffffffffffffffffffffffffff168273ffffffffffffffffffffffffffffffffffffffff1614156108ce576040517f08c379a00000000000000000000000000000000000000000000000000000000081526004016108c5906122d6565b60405180910390fd5b600360008373ffffffffffffffffffffffffffffffffffffffff1673ffffffffffffffffffffffffffffffffffffffff168152602001908152602001600020549050919050565b606060018054610924906126a3565b80601f0160208091040260200160405190810160405280929190818152602001828054610950906126a3565b801561099d5780601f106109725761010080835404028352916020019161099d565b820191906000526020600020905b81548152906001019060200180831161098057829003601f168201915b5050505050905090565b6109af610e99565b73ffffffffffffffffffffffffffffffffffffffff168273ffffffffffffffffffffffffffffffffffffffff161415610a1d576040517f08c379a0000000000000000000000000000000000000000000000000000000008152600401610a1490612276565b60405180910390fd5b8060056000610a2a610e99565b73ffffffffffffffffffffffffffffffffffffffff1673ffffffffffffffffffffffffffffffffffffffff16815260200190815260200160002060008473ffffffffffffffffffffffffffffffffffffffff1673ffffffffffffffffffffffffffffffffffffffff16815260200190815260200160002060006101000a81548160ff0219169083151502179055508173ffffffffffffffffffffffffffffffffffffffff16610ad7610e99565b73ffffffffffffffffffffffffffffffffffffffff167f17307eab39ab6107e8899845ad3d59bd9653f200f220920489ca2b5937696c3183604051610b1c91906121d9565b60405180910390a35050565b60078060000154905081565b610b45610b3f610e99565b83610f5a565b610b84576040517f08c379a0000000000000000000000000000000000000000000000000000000008152600401610b7b906123f6565b60405180910390fd5b610b908484848461134a565b50505050565b6060610ba182610e2d565b610be0576040517f08c379a0000000000000000000000000000000000000000000000000000000008152600401610bd790612356565b60405180910390fd5b6000600660008481526020019081526020016000208054610c00906126a3565b80601f0160208091040260200160405190810160405280929190818152602001828054610c2c906126a3565b8015610c795780601f10610c4e57610100808354040283529160200191610c79565b820191906000526020600020905b815481529060010190602001808311610c5c57829003601f168201915b505050505090506000610c8a6113a6565b9050600081511415610ca0578192505050610ce3565b600082511115610cd5578082604051602001610cbd92919061214e565b60405160208183030381529060405292505050610ce3565b610cde846113bd565b925050505b919050565b6000600560008473ffffffffffffffffffffffffffffffffffffffff1673ffffffffffffffffffffffffffffffffffffffff16815260200190815260200160002060008373ffffffffffffffffffffffffffffffffffffffff1673ffffffffffffffffffffffffffffffffffffffff16815260200190815260200160002060009054906101000a900460ff16905092915050565b60088181548110610d8c57600080fd5b90600052602060002090600302016000915090508060000154908060010154908060020160009054906101000a900460ff16905083565b60007f01ffc9a7000000000000000000000000000000000000000000000000000000007bffffffffffffffffffffffffffffffffffffffffffffffffffffffff1916827bffffffffffffffffffffffffffffffffffffffffffffffffffffffff1916149050919050565b60008073ffffffffffffffffffffffffffffffffffffffff166002600084815260200190815260200160002060009054906101000a900473ffffffffffffffffffffffffffffffffffffffff1673ffffffffffffffffffffffffffffffffffffffff1614159050919050565b600033905090565b816004600083815260200190815260200160002060006101000a81548173ffffffffffffffffffffffffffffffffffffffff021916908373ffffffffffffffffffffffffffffffffffffffff160217905550808273ffffffffffffffffffffffffffffffffffffffff16610f14836106ea565b73ffffffffffffffffffffffffffffffffffffffff167f8c5be1e5ebec7d5bd14f71427d1e84f3dd0314c0f7b2291e5b200ac8c7c3b92560405160405180910390a45050565b6000610f6582610e2d565b610fa4576040517f08c379a0000000000000000000000000000000000000000000000000000000008152600401610f9b90612296565b60405180910390fd5b6000610faf836106ea565b90508073ffffffffffffffffffffffffffffffffffffffff168473ffffffffffffffffffffffffffffffffffffffff16148061101e57508373ffffffffffffffffffffffffffffffffffffffff16611006846104cd565b73ffffffffffffffffffffffffffffffffffffffff16145b8061102f575061102e8185610ce8565b5b91505092915050565b8273ffffffffffffffffffffffffffffffffffffffff16611058826106ea565b73ffffffffffffffffffffffffffffffffffffffff16146110ae576040517f08c379a00000000000000000000000000000000000000000000000000000000081526004016110a590612396565b60405180910390fd5b600073ffffffffffffffffffffffffffffffffffffffff168273ffffffffffffffffffffffffffffffffffffffff16141561111e576040517f08c379a000000000000000000000000000000000000000000000000000000000815260040161111590612256565b60405180910390fd5b611129838383611464565b611134600082610ea1565b6001600360008573ffffffffffffffffffffffffffffffffffffffff1673ffffffffffffffffffffffffffffffffffffffff168152602001908152602001600020600082825461118491906125b9565b925050819055506001600360008473ffffffffffffffffffffffffffffffffffffffff1673ffffffffffffffffffffffffffffffffffffffff16815260200190815260200160002060008282546111db9190612532565b92505081905550816002600083815260200190815260200160002060006101000a81548173ffffffffffffffffffffffffffffffffffffffff021916908373ffffffffffffffffffffffffffffffffffffffff160217905550808273ffffffffffffffffffffffffffffffffffffffff168473ffffffffffffffffffffffffffffffffffffffff167fddf252ad1be2c89b69c2b068fc378daa952ba7f163c4a11628f55a4df523b3ef60405160405180910390a4505050565b600081600001549050919050565b6112bc828260405180602001604052806000815250611469565b5050565b6112c982610e2d565b611308576040517f08c379a00000000000000000000000000000000000000000000000000000000081526004016112ff90612316565b60405180910390fd5b8060066000848152602001908152602001600020908051906020019061132f9291906119e9565b505050565b6001816000016000828254019250508190555050565b611355848484611038565b611361848484846114c4565b6113a0576040517f08c379a000000000000000000000000000000000000000000000000000000000815260040161139790612216565b60405180910390fd5b50505050565b606060405180602001604052806000815250905090565b60606113c882610e2d565b611407576040517f08c379a00000000000000000000000000000000000000000000000000000000081526004016113fe906123b6565b60405180910390fd5b60006114116113a6565b90506000815111611431576040518060200160405280600081525061145c565b8061143b8461165b565b60405160200161144c92919061214e565b6040516020818303038152906040525b915050919050565b505050565b6114738383611808565b61148060008484846114c4565b6114bf576040517f08c379a00000000000000000000000000000000000000000000000000000000081526004016114b690612216565b60405180910390fd5b505050565b60006114e58473ffffffffffffffffffffffffffffffffffffffff166119d6565b1561164e578373ffffffffffffffffffffffffffffffffffffffff1663150b7a0261150e610e99565b8786866040518563ffffffff1660e01b8152600401611530949392919061218d565b602060405180830381600087803b15801561154a57600080fd5b505af192505050801561157b57506040513d601f19601f820116820180604052508101906115789190611d95565b60015b6115fe573d80600081146115ab576040519150601f19603f3d011682016040523d82523d6000602084013e6115b0565b606091505b506000815114156115f6576040517f08c379a00000000000000000000000000000000000000000000000000000000081526004016115ed90612216565b60405180910390fd5b805181602001fd5b63150b7a0260e01b7bffffffffffffffffffffffffffffffffffffffffffffffffffffffff1916817bffffffffffffffffffffffffffffffffffffffffffffffffffffffff191614915050611653565b600190505b949350505050565b606060008214156116a3576040518060400160405280600181526020017f30000000000000000000000000000000000000000000000000000000000000008152509050611803565b600082905060005b600082146116d55780806116be90612706565b915050600a826116ce9190612588565b91506116ab565b60008167ffffffffffffffff811115611717577f4e487b7100000000000000000000000000000000000000000000000000000000600052604160045260246000fd5b6040519080825280601f01601f1916602001820160405280156117495781602001600182028036833780820191505090505b5090505b600085146117fc5760018261176291906125b9565b9150600a85611771919061274f565b603061177d9190612532565b60f81b8183815181106117b9577f4e487b7100000000000000000000000000000000000000000000000000000000600052603260045260246000fd5b60200101907effffffffffffffffffffffffffffffffffffffffffffffffffffffffffffff1916908160001a905350600a856117f59190612588565b945061174d565b8093505050505b919050565b600073ffffffffffffffffffffffffffffffffffffffff168273ffffffffffffffffffffffffffffffffffffffff161415611878576040517f08c379a000000000000000000000000000000000000000000000000000000000815260040161186f90612336565b60405180910390fd5b61188181610e2d565b156118c1576040517f08c379a00000000000000000000000000000000000000000000000000000000081526004016118b890612236565b60405180910390fd5b6118cd60008383611464565b6001600360008473ffffffffffffffffffffffffffffffffffffffff1673ffffffffffffffffffffffffffffffffffffffff168152602001908152602001600020600082825461191d9190612532565b92505081905550816002600083815260200190815260200160002060006101000a81548173ffffffffffffffffffffffffffffffffffffffff021916908373ffffffffffffffffffffffffffffffffffffffff160217905550808273ffffffffffffffffffffffffffffffffffffffff16600073ffffffffffffffffffffffffffffffffffffffff167fddf252ad1be2c89b69c2b068fc378daa952ba7f163c4a11628f55a4df523b3ef60405160405180910390a45050565b600080823b905060008111915050919050565b8280546119f5906126a3565b90600052602060002090601f016020900481019282611a175760008555611a5e565b82601f10611a3057805160ff1916838001178555611a5e565b82800160010185558215611a5e579182015b82811115611a5d578251825591602001919060010190611a42565b5b509050611a6b9190611a6f565b5090565b5b80821115611a88576000816000905550600101611a70565b5090565b6000611a9f611a9a8461248d565b612468565b905082815260208101848484011115611ab757600080fd5b611ac2848285612661565b509392505050565b6000611add611ad8846124be565b612468565b905082815260208101848484011115611af557600080fd5b611b00848285612661565b509392505050565b600081359050611b1781612ccb565b92915050565b600081359050611b2c81612ce2565b92915050565b600081359050611b4181612cf9565b92915050565b600081519050611b5681612cf9565b92915050565b600082601f830112611b6d57600080fd5b8135611b7d848260208601611a8c565b91505092915050565b600082601f830112611b9757600080fd5b8135611ba7848260208601611aca565b91505092915050565b600081359050611bbf81612d10565b92915050565b600060208284031215611bd757600080fd5b6000611be584828501611b08565b91505092915050565b60008060408385031215611c0157600080fd5b6000611c0f85828601611b08565b9250506020611c2085828601611b08565b9150509250929050565b600080600060608486031215611c3f57600080fd5b6000611c4d86828701611b08565b9350506020611c5e86828701611b08565b9250506040611c6f86828701611bb0565b9150509250925092565b60008060008060808587031215611c8f57600080fd5b6000611c9d87828801611b08565b9450506020611cae87828801611b08565b9350506040611cbf87828801611bb0565b925050606085013567ffffffffffffffff811115611cdc57600080fd5b611ce887828801611b5c565b91505092959194509250565b60008060408385031215611d0757600080fd5b6000611d1585828601611b08565b9250506020611d2685828601611b1d565b9150509250929050565b60008060408385031215611d4357600080fd5b6000611d5185828601611b08565b9250506020611d6285828601611bb0565b9150509250929050565b600060208284031215611d7e57600080fd5b6000611d8c84828501611b32565b91505092915050565b600060208284031215611da757600080fd5b6000611db584828501611b47565b91505092915050565b600080600060608486031215611dd357600080fd5b600084013567ffffffffffffffff811115611ded57600080fd5b611df986828701611b86565b9350506020611e0a86828701611bb0565b9250506040611e1b86828701611b08565b9150509250925092565b600060208284031215611e3757600080fd5b6000611e4584828501611bb0565b91505092915050565b611e57816125ed565b82525050565b611e66816125ff565b82525050565b6000611e77826124ef565b611e818185612505565b9350611e91818560208601612670565b611e9a8161283c565b840191505092915050565b6000611eb0826124fa565b611eba8185612516565b9350611eca818560208601612670565b611ed38161283c565b840191505092915050565b6000611ee9826124fa565b611ef38185612527565b9350611f03818560208601612670565b80840191505092915050565b6000611f1c603283612516565b9150611f278261284d565b604082019050919050565b6000611f3f601c83612516565b9150611f4a8261289c565b602082019050919050565b6000611f62602483612516565b9150611f6d826128c5565b604082019050919050565b6000611f85601983612516565b9150611f9082612914565b602082019050919050565b6000611fa8602c83612516565b9150611fb38261293d565b604082019050919050565b6000611fcb603883612516565b9150611fd68261298c565b604082019050919050565b6000611fee602a83612516565b9150611ff9826129db565b604082019050919050565b6000612011602983612516565b915061201c82612a2a565b604082019050919050565b6000612034602e83612516565b915061203f82612a79565b604082019050919050565b6000612057602083612516565b915061206282612ac8565b602082019050919050565b600061207a603183612516565b915061208582612af1565b604082019050919050565b600061209d602c83612516565b91506120a882612b40565b604082019050919050565b60006120c0602983612516565b91506120cb82612b8f565b604082019050919050565b60006120e3602f83612516565b91506120ee82612bde565b604082019050919050565b6000612106602183612516565b915061211182612c2d565b604082019050919050565b6000612129603183612516565b915061213482612c7c565b604082019050919050565b61214881612657565b82525050565b600061215a8285611ede565b91506121668284611ede565b91508190509392505050565b60006020820190506121876000830184611e4e565b92915050565b60006080820190506121a26000830187611e4e565b6121af6020830186611e4e565b6121bc604083018561213f565b81810360608301526121ce8184611e6c565b905095945050505050565b60006020820190506121ee6000830184611e5d565b92915050565b6000602082019050818103600083015261220e8184611ea5565b905092915050565b6000602082019050818103600083015261222f81611f0f565b9050919050565b6000602082019050818103600083015261224f81611f32565b9050919050565b6000602082019050818103600083015261226f81611f55565b9050919050565b6000602082019050818103600083015261228f81611f78565b9050919050565b600060208201905081810360008301526122af81611f9b565b9050919050565b600060208201905081810360008301526122cf81611fbe565b9050919050565b600060208201905081810360008301526122ef81611fe1565b9050919050565b6000602082019050818103600083015261230f81612004565b9050919050565b6000602082019050818103600083015261232f81612027565b9050919050565b6000602082019050818103600083015261234f8161204a565b9050919050565b6000602082019050818103600083015261236f8161206d565b9050919050565b6000602082019050818103600083015261238f81612090565b9050919050565b600060208201905081810360008301526123af816120b3565b9050919050565b600060208201905081810360008301526123cf816120d6565b9050919050565b600060208201905081810360008301526123ef816120f9565b9050919050565b6000602082019050818103600083015261240f8161211c565b9050919050565b600060208201905061242b600083018461213f565b92915050565b6000606082019050612446600083018661213f565b612453602083018561213f565b6124606040830184611e5d565b949350505050565b6000612472612483565b905061247e82826126d5565b919050565b6000604051905090565b600067ffffffffffffffff8211156124a8576124a761280d565b5b6124b18261283c565b9050602081019050919050565b600067ffffffffffffffff8211156124d9576124d861280d565b5b6124e28261283c565b9050602081019050919050565b600081519050919050565b600081519050919050565b600082825260208201905092915050565b600082825260208201905092915050565b600081905092915050565b600061253d82612657565b915061254883612657565b9250827fffffffffffffffffffffffffffffffffffffffffffffffffffffffffffffffff0382111561257d5761257c612780565b5b828201905092915050565b600061259382612657565b915061259e83612657565b9250826125ae576125ad6127af565b5b828204905092915050565b60006125c482612657565b91506125cf83612657565b9250828210156125e2576125e1612780565b5b828203905092915050565b60006125f882612637565b9050919050565b60008115159050919050565b60007fffffffff0000000000000000000000000000000000000000000000000000000082169050919050565b600073ffffffffffffffffffffffffffffffffffffffff82169050919050565b6000819050919050565b82818337600083830152505050565b60005b8381101561268e578082015181840152602081019050612673565b8381111561269d576000848401525b50505050565b600060028204905060018216806126bb57607f821691505b602082108114156126cf576126ce6127de565b5b50919050565b6126de8261283c565b810181811067ffffffffffffffff821117156126fd576126fc61280d565b5b80604052505050565b600061271182612657565b91507fffffffffffffffffffffffffffffffffffffffffffffffffffffffffffffffff82141561274457612743612780565b5b600182019050919050565b600061275a82612657565b915061276583612657565b925082612775576127746127af565b5b828206905092915050565b7f4e487b7100000000000000000000000000000000000000000000000000000000600052601160045260246000fd5b7f4e487b7100000000000000000000000000000000000000000000000000000000600052601260045260246000fd5b7f4e487b7100000000000000000000000000000000000000000000000000000000600052602260045260246000fd5b7f4e487b7100000000000000000000000000000000000000000000000000000000600052604160045260246000fd5b6000601f19601f8301169050919050565b7f4552433732313a207472616e7366657220746f206e6f6e20455243373231526560008201527f63656976657220696d706c656d656e7465720000000000000000000000000000602082015250565b7f4552433732313a20746f6b656e20616c7265616479206d696e74656400000000600082015250565b7f4552433732313a207472616e7366657220746f20746865207a65726f2061646460008201527f7265737300000000000000000000000000000000000000000000000000000000602082015250565b7f4552433732313a20617070726f766520746f2063616c6c657200000000000000600082015250565b7f4552433732313a206f70657261746f7220717565727920666f72206e6f6e657860008201527f697374656e7420746f6b656e0000000000000000000000000000000000000000602082015250565b7f4552433732313a20617070726f76652063616c6c6572206973206e6f74206f7760008201527f6e6572206e6f7220617070726f76656420666f7220616c6c0000000000000000602082015250565b7f4552433732313a2062616c616e636520717565727920666f7220746865207a6560008201527f726f206164647265737300000000000000000000000000000000000000000000602082015250565b7f4552433732313a206f776e657220717565727920666f72206e6f6e657869737460008201527f656e7420746f6b656e0000000000000000000000000000000000000000000000602082015250565b7f45524337323155524953746f726167653a2055524920736574206f66206e6f6e60008201527f6578697374656e7420746f6b656e000000000000000000000000000000000000602082015250565b7f4552433732313a206d696e7420746f20746865207a65726f2061646472657373600082015250565b7f45524337323155524953746f726167653a2055524920717565727920666f722060008201527f6e6f6e6578697374656e7420746f6b656e000000000000000000000000000000602082015250565b7f4552433732313a20617070726f76656420717565727920666f72206e6f6e657860008201527f697374656e7420746f6b656e0000000000000000000000000000000000000000602082015250565b7f4552433732313a207472616e73666572206f6620746f6b656e2074686174206960008201527f73206e6f74206f776e0000000000000000000000000000000000000000000000602082015250565b7f4552433732314d657461646174613a2055524920717565727920666f72206e6f60008201527f6e6578697374656e7420746f6b656e0000000000000000000000000000000000602082015250565b7f4552433732313a20617070726f76616c20746f2063757272656e74206f776e6560008201527f7200000000000000000000000000000000000000000000000000000000000000602082015250565b7f4552433732313a207472616e736665722063616c6c6572206973206e6f74206f60008201527f776e6572206e6f7220617070726f766564000000000000000000000000000000602082015250565b612cd4816125ed565b8114612cdf57600080fd5b50565b612ceb816125ff565b8114612cf657600080fd5b50565b612d028161260b565b8114612d0d57600080fd5b50565b612d1981612657565b8114612d2457600080fd5b5056fea2646970667358221220e5bcf574bf085c808d9945e18a47749e9296067a0fa029786498a6db4eeecce164736f6c63430008040033",
  "immutableReferences": {},
  "source": "// SPDX-License-Identifier: MIT\r\npragma solidity 0.8.4;\r\n\r\nimport \"@openzeppelin/contracts/token/ERC721/extensions/ERC721URIStorage.sol\";\r\nimport \"@openzeppelin/contracts/utils/Counters.sol\";\r\n\r\n\r\ncontract SimpleNFT is ERC721URIStorage {\r\n    using Counters for Counters.Counter;\r\n\r\n    Counters.Counter public _tokenIds;\r\n    NFTSale[] public _listed;\r\n\r\n    struct NFTSale {\r\n        uint256 id;\r\n        uint price;\r\n        bool isForSale;\r\n    }\r\n\r\n    constructor() ERC721(\"SimpleNFT\", \"SNFT\") {\r\n\r\n    }\r\n\r\n    function mintNFT(string memory tokenURI, uint price, address custodian) public {\r\n        uint newItemId = _tokenIds.current();\r\n\r\n        _safeMint(msg.sender, newItemId);\r\n        _setTokenURI(newItemId, tokenURI);\r\n        approve(custodian, newItemId);\r\n\r\n        NFTSale memory sale = NFTSale(newItemId, price, true);\r\n        _listed.push(sale);\r\n\r\n        _tokenIds.increment();\r\n    }\r\n\r\n}\r\n",
  "sourcePath": "D:/Alvin/blockchain/simple-nft/contracts/SimpleNFT.sol",
  "compiler": {
    "name": "solc",
    "version": "0.8.4+commit.c7e474f2.Emscripten.clang"
  },
  "schemaVersion": "3.2.3",
  "updatedAt": "2021-11-14T04:16:06.302Z",
  "networkType": "ethereum",
  "devdoc": {
    "kind": "dev",
    "methods": {
      "approve(address,uint256)": {
        "details": "See {IERC721-approve}."
      },
      "balanceOf(address)": {
        "details": "See {IERC721-balanceOf}."
      },
      "getApproved(uint256)": {
        "details": "See {IERC721-getApproved}."
      },
      "isApprovedForAll(address,address)": {
        "details": "See {IERC721-isApprovedForAll}."
      },
      "name()": {
        "details": "See {IERC721Metadata-name}."
      },
      "ownerOf(uint256)": {
        "details": "See {IERC721-ownerOf}."
      },
      "safeTransferFrom(address,address,uint256)": {
        "details": "See {IERC721-safeTransferFrom}."
      },
      "safeTransferFrom(address,address,uint256,bytes)": {
        "details": "See {IERC721-safeTransferFrom}."
      },
      "setApprovalForAll(address,bool)": {
        "details": "See {IERC721-setApprovalForAll}."
      },
      "supportsInterface(bytes4)": {
        "details": "See {IERC165-supportsInterface}."
      },
      "symbol()": {
        "details": "See {IERC721Metadata-symbol}."
      },
      "tokenURI(uint256)": {
        "details": "See {IERC721Metadata-tokenURI}."
      },
      "transferFrom(address,address,uint256)": {
        "details": "See {IERC721-transferFrom}."
      }
    },
    "version": 1
  },
  "userdoc": {
    "kind": "user",
    "methods": {},
    "version": 1
  }
}