{
  "contractName": "SimpleNFT",
  "abi": [
    {
      "inputs": [],
      "stateMutability": "nonpayable",
      "type": "constructor"
    },
    {
      "anonymous": false,
      "inputs": [
        {
          "indexed": true,
          "internalType": "address",
          "name": "owner",
          "type": "address"
        },
        {
          "indexed": true,
          "internalType": "address",
          "name": "approved",
          "type": "address"
        },
        {
          "indexed": true,
          "internalType": "uint256",
          "name": "tokenId",
          "type": "uint256"
        }
      ],
      "name": "Approval",
      "type": "event"
    },
    {
      "anonymous": false,
      "inputs": [
        {
          "indexed": true,
          "internalType": "address",
          "name": "owner",
          "type": "address"
        },
        {
          "indexed": true,
          "internalType": "address",
          "name": "operator",
          "type": "address"
        },
        {
          "indexed": false,
          "internalType": "bool",
          "name": "approved",
          "type": "bool"
        }
      ],
      "name": "ApprovalForAll",
      "type": "event"
    },
    {
      "anonymous": false,
      "inputs": [
        {
          "indexed": true,
          "internalType": "address",
          "name": "from",
          "type": "address"
        },
        {
          "indexed": true,
          "internalType": "address",
          "name": "to",
          "type": "address"
        },
        {
          "indexed": true,
          "internalType": "uint256",
          "name": "tokenId",
          "type": "uint256"
        }
      ],
      "name": "Transfer",
      "type": "event"
    },
    {
      "inputs": [
        {
          "internalType": "uint256",
          "name": "",
          "type": "uint256"
        }
      ],
      "name": "_listed",
      "outputs": [
        {
          "internalType": "uint256",
          "name": "id",
          "type": "uint256"
        },
        {
          "internalType": "uint256",
          "name": "price",
          "type": "uint256"
        },
        {
          "internalType": "bool",
          "name": "isForSale",
          "type": "bool"
        }
      ],
      "stateMutability": "view",
      "type": "function",
      "constant": true
    },
    {
      "inputs": [],
      "name": "_tokenIds",
      "outputs": [
        {
          "internalType": "uint256",
          "name": "_value",
          "type": "uint256"
        }
      ],
      "stateMutability": "view",
      "type": "function",
      "constant": true
    },
    {
      "inputs": [
        {
          "internalType": "address",
          "name": "to",
          "type": "address"
        },
        {
          "internalType": "uint256",
          "name": "tokenId",
          "type": "uint256"
        }
      ],
      "name": "approve",
      "outputs": [],
      "stateMutability": "nonpayable",
      "type": "function"
    },
    {
      "inputs": [
        {
          "internalType": "address",
          "name": "owner",
          "type": "address"
        }
      ],
      "name": "balanceOf",
      "outputs": [
        {
          "internalType": "uint256",
          "name": "",
          "type": "uint256"
        }
      ],
      "stateMutability": "view",
      "type": "function",
      "constant": true
    },
    {
      "inputs": [
        {
          "internalType": "uint256",
          "name": "tokenId",
          "type": "uint256"
        }
      ],
      "name": "getApproved",
      "outputs": [
        {
          "internalType": "address",
          "name": "",
          "type": "address"
        }
      ],
      "stateMutability": "view",
      "type": "function",
      "constant": true
    },
    {
      "inputs": [
        {
          "internalType": "address",
          "name": "owner",
          "type": "address"
        },
        {
          "internalType": "address",
          "name": "operator",
          "type": "address"
        }
      ],
      "name": "isApprovedForAll",
      "outputs": [
        {
          "internalType": "bool",
          "name": "",
          "type": "bool"
        }
      ],
      "stateMutability": "view",
      "type": "function",
      "constant": true
    },
    {
      "inputs": [],
      "name": "name",
      "outputs": [
        {
          "internalType": "string",
          "name": "",
          "type": "string"
        }
      ],
      "stateMutability": "view",
      "type": "function",
      "constant": true
    },
    {
      "inputs": [
        {
          "internalType": "uint256",
          "name": "tokenId",
          "type": "uint256"
        }
      ],
      "name": "ownerOf",
      "outputs": [
        {
          "internalType": "address",
          "name": "",
          "type": "address"
        }
      ],
      "stateMutability": "view",
      "type": "function",
      "constant": true
    },
    {
      "inputs": [
        {
          "internalType": "address",
          "name": "from",
          "type": "address"
        },
        {
          "internalType": "address",
          "name": "to",
          "type": "address"
        },
        {
          "internalType": "uint256",
          "name": "tokenId",
          "type": "uint256"
        }
      ],
      "name": "safeTransferFrom",
      "outputs": [],
      "stateMutability": "nonpayable",
      "type": "function"
    },
    {
      "inputs": [
        {
          "internalType": "address",
          "name": "from",
          "type": "address"
        },
        {
          "internalType": "address",
          "name": "to",
          "type": "address"
        },
        {
          "internalType": "uint256",
          "name": "tokenId",
          "type": "uint256"
        },
        {
          "internalType": "bytes",
          "name": "_data",
          "type": "bytes"
        }
      ],
      "name": "safeTransferFrom",
      "outputs": [],
      "stateMutability": "nonpayable",
      "type": "function"
    },
    {
      "inputs": [
        {
          "internalType": "address",
          "name": "operator",
          "type": "address"
        },
        {
          "internalType": "bool",
          "name": "approved",
          "type": "bool"
        }
      ],
      "name": "setApprovalForAll",
      "outputs": [],
      "stateMutability": "nonpayable",
      "type": "function"
    },
    {
      "inputs": [
        {
          "internalType": "bytes4",
          "name": "interfaceId",
          "type": "bytes4"
        }
      ],
      "name": "supportsInterface",
      "outputs": [
        {
          "internalType": "bool",
          "name": "",
          "type": "bool"
        }
      ],
      "stateMutability": "view",
      "type": "function",
      "constant": true
    },
    {
      "inputs": [],
      "name": "symbol",
      "outputs": [
        {
          "internalType": "string",
          "name": "",
          "type": "string"
        }
      ],
      "stateMutability": "view",
      "type": "function",
      "constant": true
    },
    {
      "inputs": [
        {
          "internalType": "uint256",
          "name": "tokenId",
          "type": "uint256"
        }
      ],
      "name": "tokenURI",
      "outputs": [
        {
          "internalType": "string",
          "name": "",
          "type": "string"
        }
      ],
      "stateMutability": "view",
      "type": "function",
      "constant": true
    },
    {
      "inputs": [
        {
          "internalType": "address",
          "name": "from",
          "type": "address"
        },
        {
          "internalType": "address",
          "name": "to",
          "type": "address"
        },
        {
          "internalType": "uint256",
          "name": "tokenId",
          "type": "uint256"
        }
      ],
      "name": "transferFrom",
      "outputs": [],
      "stateMutability": "nonpayable",
      "type": "function"
    },
    {
      "inputs": [
        {
          "internalType": "uint256",
          "name": "nftId",
          "type": "uint256"
        }
      ],
      "name": "getSalePrice",
      "outputs": [
        {
          "internalType": "uint256",
          "name": "",
          "type": "uint256"
        }
      ],
      "stateMutability": "view",
      "type": "function",
      "constant": true
    },
    {
      "inputs": [
        {
          "internalType": "uint256",
          "name": "nftId",
          "type": "uint256"
        }
      ],
      "name": "markAsSold",
      "outputs": [],
      "stateMutability": "nonpayable",
      "type": "function"
    },
    {
      "inputs": [
        {
          "internalType": "string",
          "name": "tokenURI",
          "type": "string"
        },
        {
          "internalType": "uint256",
          "name": "price",
          "type": "uint256"
        },
        {
          "internalType": "address",
          "name": "custodian",
          "type": "address"
        }
      ],
      "name": "mintNFT",
      "outputs": [],
      "stateMutability": "nonpayable",
      "type": "function"
    },
    {
      "inputs": [
        {
          "internalType": "address",
          "name": "currentOwner",
          "type": "address"
        },
        {
          "internalType": "address",
          "name": "newOwner",
          "type": "address"
        },
        {
          "internalType": "uint256",
          "name": "nftId",
          "type": "uint256"
        }
      ],
      "name": "transferNft",
      "outputs": [],
      "stateMutability": "nonpayable",
      "type": "function"
    }
  ],
  "bytecode": "0x60806040523480156200001157600080fd5b506040518060400160405280600981526020017f53696d706c654e465400000000000000000000000000000000000000000000008152506040518060400160405280600481526020017f534e465400000000000000000000000000000000000000000000000000000000815250816000908051906020019062000096929190620000b8565b508060019080519060200190620000af929190620000b8565b505050620001cd565b828054620000c69062000168565b90600052602060002090601f016020900481019282620000ea576000855562000136565b82601f106200010557805160ff191683800117855562000136565b8280016001018555821562000136579182015b828111156200013557825182559160200191906001019062000118565b5b50905062000145919062000149565b5090565b5b80821115620001645760008160009055506001016200014a565b5090565b600060028204905060018216806200018157607f821691505b602082108114156200019857620001976200019e565b5b50919050565b7f4e487b7100000000000000000000000000000000000000000000000000000000600052602260045260246000fd5b612ebd80620001dd6000396000f3fe608060405234801561001057600080fd5b50600436106101215760003560e01c806370a08231116100ad578063c87b56dd11610071578063c87b56dd14610304578063d11eccd614610334578063e985e9c514610350578063ec22b70d14610380578063f8eb5fc5146103b257610121565b806370a082311461026057806395d89b4114610290578063a22cb465146102ae578063aa46a400146102ca578063b88d4fde146102e857610121565b806323b872dd116100f457806323b872dd146101c05780632931a108146101dc57806342842e0e146101f85780636352211e1461021457806363bae8c01461024457610121565b806301ffc9a71461012657806306fdde0314610156578063081812fc14610174578063095ea7b3146101a4575b600080fd5b610140600480360381019061013b9190611ecc565b6103e2565b60405161014d9190612339565b60405180910390f35b61015e6104c4565b60405161016b9190612354565b60405180910390f35b61018e60048036038101906101899190611f85565b610556565b60405161019b91906122d2565b60405180910390f35b6101be60048036038101906101b99190611e90565b6105db565b005b6101da60048036038101906101d59190611d8a565b6106f3565b005b6101f660048036038101906101f19190611f85565b610753565b005b610212600480360381019061020d9190611d8a565b6107c0565b005b61022e60048036038101906102299190611f85565b6107e0565b60405161023b91906122d2565b60405180910390f35b61025e60048036038101906102599190611f1e565b610892565b005b61027a60048036038101906102759190611d25565b610953565b6040516102879190612576565b60405180910390f35b610298610a0b565b6040516102a59190612354565b60405180910390f35b6102c860048036038101906102c39190611e54565b610a9d565b005b6102d2610c1e565b6040516102df9190612576565b60405180910390f35b61030260048036038101906102fd9190611dd9565b610c2a565b005b61031e60048036038101906103199190611f85565b610c8c565b60405161032b9190612354565b60405180910390f35b61034e60048036038101906103499190611d8a565b610dde565b005b61036a60048036038101906103659190611d4e565b610dee565b6040516103779190612339565b60405180910390f35b61039a60048036038101906103959190611f85565b610e82565b6040516103a993929190612591565b60405180910390f35b6103cc60048036038101906103c79190611f85565b610ec9565b6040516103d99190612576565b60405180910390f35b60007f80ac58cd000000000000000000000000000000000000000000000000000000007bffffffffffffffffffffffffffffffffffffffffffffffffffffffff1916827bffffffffffffffffffffffffffffffffffffffffffffffffffffffff191614806104ad57507f5b5e139f000000000000000000000000000000000000000000000000000000007bffffffffffffffffffffffffffffffffffffffffffffffffffffffff1916827bffffffffffffffffffffffffffffffffffffffffffffffffffffffff1916145b806104bd57506104bc82610f23565b5b9050919050565b6060600080546104d390612803565b80601f01602080910402602001604051908101604052809291908181526020018280546104ff90612803565b801561054c5780601f106105215761010080835404028352916020019161054c565b820191906000526020600020905b81548152906001019060200180831161052f57829003601f168201915b5050505050905090565b600061056182610f8d565b6105a0576040517f08c379a0000000000000000000000000000000000000000000000000000000008152600401610597906124d6565b60405180910390fd5b6004600083815260200190815260200160002060009054906101000a900473ffffffffffffffffffffffffffffffffffffffff169050919050565b60006105e6826107e0565b90508073ffffffffffffffffffffffffffffffffffffffff168373ffffffffffffffffffffffffffffffffffffffff161415610657576040517f08c379a000000000000000000000000000000000000000000000000000000000815260040161064e90612536565b60405180910390fd5b8073ffffffffffffffffffffffffffffffffffffffff16610676610ff9565b73ffffffffffffffffffffffffffffffffffffffff1614806106a557506106a48161069f610ff9565b610dee565b5b6106e4576040517f08c379a00000000000000000000000000000000000000000000000000000000081526004016106db90612416565b60405180910390fd5b6106ee8383611001565b505050565b6107046106fe610ff9565b826110ba565b610743576040517f08c379a000000000000000000000000000000000000000000000000000000000815260040161073a90612556565b60405180910390fd5b61074e838383611198565b505050565b60006008828154811061078f577f4e487b7100000000000000000000000000000000000000000000000000000000600052603260045260246000fd5b9060005260206000209060030201905060008160020160006101000a81548160ff0219169083151502179055505050565b6107db83838360405180602001604052806000815250610c2a565b505050565b6000806002600084815260200190815260200160002060009054906101000a900473ffffffffffffffffffffffffffffffffffffffff169050600073ffffffffffffffffffffffffffffffffffffffff168173ffffffffffffffffffffffffffffffffffffffff161415610889576040517f08c379a000000000000000000000000000000000000000000000000000000000815260040161088090612456565b60405180910390fd5b80915050919050565b600061089e60076113f4565b90506108aa3382611402565b6108b48185611420565b6108be82826105db565b600060405180606001604052808381526020018581526020016001151581525090506008819080600181540180825580915050600190039060005260206000209060030201600090919091909150600082015181600001556020820151816001015560408201518160020160006101000a81548160ff021916908315150217905550505061094c6007611494565b5050505050565b60008073ffffffffffffffffffffffffffffffffffffffff168273ffffffffffffffffffffffffffffffffffffffff1614156109c4576040517f08c379a00000000000000000000000000000000000000000000000000000000081526004016109bb90612436565b60405180910390fd5b600360008373ffffffffffffffffffffffffffffffffffffffff1673ffffffffffffffffffffffffffffffffffffffff168152602001908152602001600020549050919050565b606060018054610a1a90612803565b80601f0160208091040260200160405190810160405280929190818152602001828054610a4690612803565b8015610a935780601f10610a6857610100808354040283529160200191610a93565b820191906000526020600020905b815481529060010190602001808311610a7657829003601f168201915b5050505050905090565b610aa5610ff9565b73ffffffffffffffffffffffffffffffffffffffff168273ffffffffffffffffffffffffffffffffffffffff161415610b13576040517f08c379a0000000000000000000000000000000000000000000000000000000008152600401610b0a906123d6565b60405180910390fd5b8060056000610b20610ff9565b73ffffffffffffffffffffffffffffffffffffffff1673ffffffffffffffffffffffffffffffffffffffff16815260200190815260200160002060008473ffffffffffffffffffffffffffffffffffffffff1673ffffffffffffffffffffffffffffffffffffffff16815260200190815260200160002060006101000a81548160ff0219169083151502179055508173ffffffffffffffffffffffffffffffffffffffff16610bcd610ff9565b73ffffffffffffffffffffffffffffffffffffffff167f17307eab39ab6107e8899845ad3d59bd9653f200f220920489ca2b5937696c3183604051610c129190612339565b60405180910390a35050565b60078060000154905081565b610c3b610c35610ff9565b836110ba565b610c7a576040517f08c379a0000000000000000000000000000000000000000000000000000000008152600401610c7190612556565b60405180910390fd5b610c86848484846114aa565b50505050565b6060610c9782610f8d565b610cd6576040517f08c379a0000000000000000000000000000000000000000000000000000000008152600401610ccd906124b6565b60405180910390fd5b6000600660008481526020019081526020016000208054610cf690612803565b80601f0160208091040260200160405190810160405280929190818152602001828054610d2290612803565b8015610d6f5780601f10610d4457610100808354040283529160200191610d6f565b820191906000526020600020905b815481529060010190602001808311610d5257829003601f168201915b505050505090506000610d80611506565b9050600081511415610d96578192505050610dd9565b600082511115610dcb578082604051602001610db39291906122ae565b60405160208183030381529060405292505050610dd9565b610dd48461151d565b925050505b919050565b610de98383836107c0565b505050565b6000600560008473ffffffffffffffffffffffffffffffffffffffff1673ffffffffffffffffffffffffffffffffffffffff16815260200190815260200160002060008373ffffffffffffffffffffffffffffffffffffffff1673ffffffffffffffffffffffffffffffffffffffff16815260200190815260200160002060009054906101000a900460ff16905092915050565b60088181548110610e9257600080fd5b90600052602060002090600302016000915090508060000154908060010154908060020160009054906101000a900460ff16905083565b60008060088381548110610f06577f4e487b7100000000000000000000000000000000000000000000000000000000600052603260045260246000fd5b906000526020600020906003020190508060010154915050919050565b60007f01ffc9a7000000000000000000000000000000000000000000000000000000007bffffffffffffffffffffffffffffffffffffffffffffffffffffffff1916827bffffffffffffffffffffffffffffffffffffffffffffffffffffffff1916149050919050565b60008073ffffffffffffffffffffffffffffffffffffffff166002600084815260200190815260200160002060009054906101000a900473ffffffffffffffffffffffffffffffffffffffff1673ffffffffffffffffffffffffffffffffffffffff1614159050919050565b600033905090565b816004600083815260200190815260200160002060006101000a81548173ffffffffffffffffffffffffffffffffffffffff021916908373ffffffffffffffffffffffffffffffffffffffff160217905550808273ffffffffffffffffffffffffffffffffffffffff16611074836107e0565b73ffffffffffffffffffffffffffffffffffffffff167f8c5be1e5ebec7d5bd14f71427d1e84f3dd0314c0f7b2291e5b200ac8c7c3b92560405160405180910390a45050565b60006110c582610f8d565b611104576040517f08c379a00000000000000000000000000000000000000000000000000000000081526004016110fb906123f6565b60405180910390fd5b600061110f836107e0565b90508073ffffffffffffffffffffffffffffffffffffffff168473ffffffffffffffffffffffffffffffffffffffff16148061117e57508373ffffffffffffffffffffffffffffffffffffffff1661116684610556565b73ffffffffffffffffffffffffffffffffffffffff16145b8061118f575061118e8185610dee565b5b91505092915050565b8273ffffffffffffffffffffffffffffffffffffffff166111b8826107e0565b73ffffffffffffffffffffffffffffffffffffffff161461120e576040517f08c379a0000000000000000000000000000000000000000000000000000000008152600401611205906124f6565b60405180910390fd5b600073ffffffffffffffffffffffffffffffffffffffff168273ffffffffffffffffffffffffffffffffffffffff16141561127e576040517f08c379a0000000000000000000000000000000000000000000000000000000008152600401611275906123b6565b60405180910390fd5b6112898383836115c4565b611294600082611001565b6001600360008573ffffffffffffffffffffffffffffffffffffffff1673ffffffffffffffffffffffffffffffffffffffff16815260200190815260200160002060008282546112e49190612719565b925050819055506001600360008473ffffffffffffffffffffffffffffffffffffffff1673ffffffffffffffffffffffffffffffffffffffff168152602001908152602001600020600082825461133b9190612692565b92505081905550816002600083815260200190815260200160002060006101000a81548173ffffffffffffffffffffffffffffffffffffffff021916908373ffffffffffffffffffffffffffffffffffffffff160217905550808273ffffffffffffffffffffffffffffffffffffffff168473ffffffffffffffffffffffffffffffffffffffff167fddf252ad1be2c89b69c2b068fc378daa952ba7f163c4a11628f55a4df523b3ef60405160405180910390a4505050565b600081600001549050919050565b61141c8282604051806020016040528060008152506115c9565b5050565b61142982610f8d565b611468576040517f08c379a000000000000000000000000000000000000000000000000000000000815260040161145f90612476565b60405180910390fd5b8060066000848152602001908152602001600020908051906020019061148f929190611b49565b505050565b6001816000016000828254019250508190555050565b6114b5848484611198565b6114c184848484611624565b611500576040517f08c379a00000000000000000000000000000000000000000000000000000000081526004016114f790612376565b60405180910390fd5b50505050565b606060405180602001604052806000815250905090565b606061152882610f8d565b611567576040517f08c379a000000000000000000000000000000000000000000000000000000000815260040161155e90612516565b60405180910390fd5b6000611571611506565b9050600081511161159157604051806020016040528060008152506115bc565b8061159b846117bb565b6040516020016115ac9291906122ae565b6040516020818303038152906040525b915050919050565b505050565b6115d38383611968565b6115e06000848484611624565b61161f576040517f08c379a000000000000000000000000000000000000000000000000000000000815260040161161690612376565b60405180910390fd5b505050565b60006116458473ffffffffffffffffffffffffffffffffffffffff16611b36565b156117ae578373ffffffffffffffffffffffffffffffffffffffff1663150b7a0261166e610ff9565b8786866040518563ffffffff1660e01b815260040161169094939291906122ed565b602060405180830381600087803b1580156116aa57600080fd5b505af19250505080156116db57506040513d601f19601f820116820180604052508101906116d89190611ef5565b60015b61175e573d806000811461170b576040519150601f19603f3d011682016040523d82523d6000602084013e611710565b606091505b50600081511415611756576040517f08c379a000000000000000000000000000000000000000000000000000000000815260040161174d90612376565b60405180910390fd5b805181602001fd5b63150b7a0260e01b7bffffffffffffffffffffffffffffffffffffffffffffffffffffffff1916817bffffffffffffffffffffffffffffffffffffffffffffffffffffffff1916149150506117b3565b600190505b949350505050565b60606000821415611803576040518060400160405280600181526020017f30000000000000000000000000000000000000000000000000000000000000008152509050611963565b600082905060005b6000821461183557808061181e90612866565b915050600a8261182e91906126e8565b915061180b565b60008167ffffffffffffffff811115611877577f4e487b7100000000000000000000000000000000000000000000000000000000600052604160045260246000fd5b6040519080825280601f01601f1916602001820160405280156118a95781602001600182028036833780820191505090505b5090505b6000851461195c576001826118c29190612719565b9150600a856118d191906128af565b60306118dd9190612692565b60f81b818381518110611919577f4e487b7100000000000000000000000000000000000000000000000000000000600052603260045260246000fd5b60200101907effffffffffffffffffffffffffffffffffffffffffffffffffffffffffffff1916908160001a905350600a8561195591906126e8565b94506118ad565b8093505050505b919050565b600073ffffffffffffffffffffffffffffffffffffffff168273ffffffffffffffffffffffffffffffffffffffff1614156119d8576040517f08c379a00000000000000000000000000000000000000000000000000000000081526004016119cf90612496565b60405180910390fd5b6119e181610f8d565b15611a21576040517f08c379a0000000000000000000000000000000000000000000000000000000008152600401611a1890612396565b60405180910390fd5b611a2d600083836115c4565b6001600360008473ffffffffffffffffffffffffffffffffffffffff1673ffffffffffffffffffffffffffffffffffffffff1681526020019081526020016000206000828254611a7d9190612692565b92505081905550816002600083815260200190815260200160002060006101000a81548173ffffffffffffffffffffffffffffffffffffffff021916908373ffffffffffffffffffffffffffffffffffffffff160217905550808273ffffffffffffffffffffffffffffffffffffffff16600073ffffffffffffffffffffffffffffffffffffffff167fddf252ad1be2c89b69c2b068fc378daa952ba7f163c4a11628f55a4df523b3ef60405160405180910390a45050565b600080823b905060008111915050919050565b828054611b5590612803565b90600052602060002090601f016020900481019282611b775760008555611bbe565b82601f10611b9057805160ff1916838001178555611bbe565b82800160010185558215611bbe579182015b82811115611bbd578251825591602001919060010190611ba2565b5b509050611bcb9190611bcf565b5090565b5b80821115611be8576000816000905550600101611bd0565b5090565b6000611bff611bfa846125ed565b6125c8565b905082815260208101848484011115611c1757600080fd5b611c228482856127c1565b509392505050565b6000611c3d611c388461261e565b6125c8565b905082815260208101848484011115611c5557600080fd5b611c608482856127c1565b509392505050565b600081359050611c7781612e2b565b92915050565b600081359050611c8c81612e42565b92915050565b600081359050611ca181612e59565b92915050565b600081519050611cb681612e59565b92915050565b600082601f830112611ccd57600080fd5b8135611cdd848260208601611bec565b91505092915050565b600082601f830112611cf757600080fd5b8135611d07848260208601611c2a565b91505092915050565b600081359050611d1f81612e70565b92915050565b600060208284031215611d3757600080fd5b6000611d4584828501611c68565b91505092915050565b60008060408385031215611d6157600080fd5b6000611d6f85828601611c68565b9250506020611d8085828601611c68565b9150509250929050565b600080600060608486031215611d9f57600080fd5b6000611dad86828701611c68565b9350506020611dbe86828701611c68565b9250506040611dcf86828701611d10565b9150509250925092565b60008060008060808587031215611def57600080fd5b6000611dfd87828801611c68565b9450506020611e0e87828801611c68565b9350506040611e1f87828801611d10565b925050606085013567ffffffffffffffff811115611e3c57600080fd5b611e4887828801611cbc565b91505092959194509250565b60008060408385031215611e6757600080fd5b6000611e7585828601611c68565b9250506020611e8685828601611c7d565b9150509250929050565b60008060408385031215611ea357600080fd5b6000611eb185828601611c68565b9250506020611ec285828601611d10565b9150509250929050565b600060208284031215611ede57600080fd5b6000611eec84828501611c92565b91505092915050565b600060208284031215611f0757600080fd5b6000611f1584828501611ca7565b91505092915050565b600080600060608486031215611f3357600080fd5b600084013567ffffffffffffffff811115611f4d57600080fd5b611f5986828701611ce6565b9350506020611f6a86828701611d10565b9250506040611f7b86828701611c68565b9150509250925092565b600060208284031215611f9757600080fd5b6000611fa584828501611d10565b91505092915050565b611fb78161274d565b82525050565b611fc68161275f565b82525050565b6000611fd78261264f565b611fe18185612665565b9350611ff18185602086016127d0565b611ffa8161299c565b840191505092915050565b60006120108261265a565b61201a8185612676565b935061202a8185602086016127d0565b6120338161299c565b840191505092915050565b60006120498261265a565b6120538185612687565b93506120638185602086016127d0565b80840191505092915050565b600061207c603283612676565b9150612087826129ad565b604082019050919050565b600061209f601c83612676565b91506120aa826129fc565b602082019050919050565b60006120c2602483612676565b91506120cd82612a25565b604082019050919050565b60006120e5601983612676565b91506120f082612a74565b602082019050919050565b6000612108602c83612676565b915061211382612a9d565b604082019050919050565b600061212b603883612676565b915061213682612aec565b604082019050919050565b600061214e602a83612676565b915061215982612b3b565b604082019050919050565b6000612171602983612676565b915061217c82612b8a565b604082019050919050565b6000612194602e83612676565b915061219f82612bd9565b604082019050919050565b60006121b7602083612676565b91506121c282612c28565b602082019050919050565b60006121da603183612676565b91506121e582612c51565b604082019050919050565b60006121fd602c83612676565b915061220882612ca0565b604082019050919050565b6000612220602983612676565b915061222b82612cef565b604082019050919050565b6000612243602f83612676565b915061224e82612d3e565b604082019050919050565b6000612266602183612676565b915061227182612d8d565b604082019050919050565b6000612289603183612676565b915061229482612ddc565b604082019050919050565b6122a8816127b7565b82525050565b60006122ba828561203e565b91506122c6828461203e565b91508190509392505050565b60006020820190506122e76000830184611fae565b92915050565b60006080820190506123026000830187611fae565b61230f6020830186611fae565b61231c604083018561229f565b818103606083015261232e8184611fcc565b905095945050505050565b600060208201905061234e6000830184611fbd565b92915050565b6000602082019050818103600083015261236e8184612005565b905092915050565b6000602082019050818103600083015261238f8161206f565b9050919050565b600060208201905081810360008301526123af81612092565b9050919050565b600060208201905081810360008301526123cf816120b5565b9050919050565b600060208201905081810360008301526123ef816120d8565b9050919050565b6000602082019050818103600083015261240f816120fb565b9050919050565b6000602082019050818103600083015261242f8161211e565b9050919050565b6000602082019050818103600083015261244f81612141565b9050919050565b6000602082019050818103600083015261246f81612164565b9050919050565b6000602082019050818103600083015261248f81612187565b9050919050565b600060208201905081810360008301526124af816121aa565b9050919050565b600060208201905081810360008301526124cf816121cd565b9050919050565b600060208201905081810360008301526124ef816121f0565b9050919050565b6000602082019050818103600083015261250f81612213565b9050919050565b6000602082019050818103600083015261252f81612236565b9050919050565b6000602082019050818103600083015261254f81612259565b9050919050565b6000602082019050818103600083015261256f8161227c565b9050919050565b600060208201905061258b600083018461229f565b92915050565b60006060820190506125a6600083018661229f565b6125b3602083018561229f565b6125c06040830184611fbd565b949350505050565b60006125d26125e3565b90506125de8282612835565b919050565b6000604051905090565b600067ffffffffffffffff8211156126085761260761296d565b5b6126118261299c565b9050602081019050919050565b600067ffffffffffffffff8211156126395761263861296d565b5b6126428261299c565b9050602081019050919050565b600081519050919050565b600081519050919050565b600082825260208201905092915050565b600082825260208201905092915050565b600081905092915050565b600061269d826127b7565b91506126a8836127b7565b9250827fffffffffffffffffffffffffffffffffffffffffffffffffffffffffffffffff038211156126dd576126dc6128e0565b5b828201905092915050565b60006126f3826127b7565b91506126fe836127b7565b92508261270e5761270d61290f565b5b828204905092915050565b6000612724826127b7565b915061272f836127b7565b925082821015612742576127416128e0565b5b828203905092915050565b600061275882612797565b9050919050565b60008115159050919050565b60007fffffffff0000000000000000000000000000000000000000000000000000000082169050919050565b600073ffffffffffffffffffffffffffffffffffffffff82169050919050565b6000819050919050565b82818337600083830152505050565b60005b838110156127ee5780820151818401526020810190506127d3565b838111156127fd576000848401525b50505050565b6000600282049050600182168061281b57607f821691505b6020821081141561282f5761282e61293e565b5b50919050565b61283e8261299c565b810181811067ffffffffffffffff8211171561285d5761285c61296d565b5b80604052505050565b6000612871826127b7565b91507fffffffffffffffffffffffffffffffffffffffffffffffffffffffffffffffff8214156128a4576128a36128e0565b5b600182019050919050565b60006128ba826127b7565b91506128c5836127b7565b9250826128d5576128d461290f565b5b828206905092915050565b7f4e487b7100000000000000000000000000000000000000000000000000000000600052601160045260246000fd5b7f4e487b7100000000000000000000000000000000000000000000000000000000600052601260045260246000fd5b7f4e487b7100000000000000000000000000000000000000000000000000000000600052602260045260246000fd5b7f4e487b7100000000000000000000000000000000000000000000000000000000600052604160045260246000fd5b6000601f19601f8301169050919050565b7f4552433732313a207472616e7366657220746f206e6f6e20455243373231526560008201527f63656976657220696d706c656d656e7465720000000000000000000000000000602082015250565b7f4552433732313a20746f6b656e20616c7265616479206d696e74656400000000600082015250565b7f4552433732313a207472616e7366657220746f20746865207a65726f2061646460008201527f7265737300000000000000000000000000000000000000000000000000000000602082015250565b7f4552433732313a20617070726f766520746f2063616c6c657200000000000000600082015250565b7f4552433732313a206f70657261746f7220717565727920666f72206e6f6e657860008201527f697374656e7420746f6b656e0000000000000000000000000000000000000000602082015250565b7f4552433732313a20617070726f76652063616c6c6572206973206e6f74206f7760008201527f6e6572206e6f7220617070726f76656420666f7220616c6c0000000000000000602082015250565b7f4552433732313a2062616c616e636520717565727920666f7220746865207a6560008201527f726f206164647265737300000000000000000000000000000000000000000000602082015250565b7f4552433732313a206f776e657220717565727920666f72206e6f6e657869737460008201527f656e7420746f6b656e0000000000000000000000000000000000000000000000602082015250565b7f45524337323155524953746f726167653a2055524920736574206f66206e6f6e60008201527f6578697374656e7420746f6b656e000000000000000000000000000000000000602082015250565b7f4552433732313a206d696e7420746f20746865207a65726f2061646472657373600082015250565b7f45524337323155524953746f726167653a2055524920717565727920666f722060008201527f6e6f6e6578697374656e7420746f6b656e000000000000000000000000000000602082015250565b7f4552433732313a20617070726f76656420717565727920666f72206e6f6e657860008201527f697374656e7420746f6b656e0000000000000000000000000000000000000000602082015250565b7f4552433732313a207472616e73666572206f6620746f6b656e2074686174206960008201527f73206e6f74206f776e0000000000000000000000000000000000000000000000602082015250565b7f4552433732314d657461646174613a2055524920717565727920666f72206e6f60008201527f6e6578697374656e7420746f6b656e0000000000000000000000000000000000602082015250565b7f4552433732313a20617070726f76616c20746f2063757272656e74206f776e6560008201527f7200000000000000000000000000000000000000000000000000000000000000602082015250565b7f4552433732313a207472616e736665722063616c6c6572206973206e6f74206f60008201527f776e6572206e6f7220617070726f766564000000000000000000000000000000602082015250565b612e348161274d565b8114612e3f57600080fd5b50565b612e4b8161275f565b8114612e5657600080fd5b50565b612e628161276b565b8114612e6d57600080fd5b50565b612e79816127b7565b8114612e8457600080fd5b5056fea2646970667358221220ed635d81bcca894e8f98fec7bfb3c672fd55de8e54585929001f41dfa6433f1764736f6c63430008040033",
  "immutableReferences": {},
  "source": "// SPDX-License-Identifier: MIT\r\npragma solidity 0.8.4;\r\n\r\nimport \"@openzeppelin/contracts/token/ERC721/extensions/ERC721URIStorage.sol\";\r\nimport \"@openzeppelin/contracts/utils/Counters.sol\";\r\n\r\n\r\ncontract SimpleNFT is ERC721URIStorage {\r\n    using Counters for Counters.Counter;\r\n\r\n    Counters.Counter public _tokenIds;\r\n    NFTSale[] public _listed;\r\n\r\n    struct NFTSale {\r\n        uint256 id;\r\n        uint price;\r\n        bool isForSale;\r\n    }\r\n\r\n    constructor() ERC721(\"SimpleNFT\", \"SNFT\") {\r\n\r\n    }\r\n\r\n    function getSalePrice(uint256 nftId) external view returns (uint) {\r\n        NFTSale storage nftForSale = _listed[nftId];\r\n        return nftForSale.price;\r\n    }\r\n\r\n    function markAsSold(uint256 nftId) public {\r\n        NFTSale storage nftForSale = _listed[nftId];\r\n        nftForSale.isForSale = false;\r\n    }\r\n\r\n\r\n    function mintNFT(string memory tokenURI, uint price, address custodian) public {\r\n        uint newItemId = _tokenIds.current();\r\n\r\n        _safeMint(msg.sender, newItemId);\r\n        _setTokenURI(newItemId, tokenURI);\r\n        approve(custodian, newItemId);\r\n\r\n        NFTSale memory sale = NFTSale(newItemId, price, true);\r\n        _listed.push(sale);\r\n\r\n        _tokenIds.increment();\r\n    }\r\n\r\n    function transferNft(address currentOwner, address newOwner, uint256 nftId) external {\r\n        safeTransferFrom(currentOwner, newOwner, nftId);\r\n    }\r\n\r\n}\r\n",
  "sourcePath": "D:\\Alvin\\blockchain\\simple-nft\\contracts\\SimpleNFT.sol",
  "compiler": {
    "name": "solc",
    "version": "0.8.4+commit.c7e474f2.Emscripten.clang"
  },
  "schemaVersion": "3.2.3",
  "updatedAt": "2021-11-14T05:02:19.932Z",
  "networkType": "ethereum",
  "devdoc": {
    "kind": "dev",
    "methods": {
      "approve(address,uint256)": {
        "details": "See {IERC721-approve}."
      },
      "balanceOf(address)": {
        "details": "See {IERC721-balanceOf}."
      },
      "getApproved(uint256)": {
        "details": "See {IERC721-getApproved}."
      },
      "isApprovedForAll(address,address)": {
        "details": "See {IERC721-isApprovedForAll}."
      },
      "name()": {
        "details": "See {IERC721Metadata-name}."
      },
      "ownerOf(uint256)": {
        "details": "See {IERC721-ownerOf}."
      },
      "safeTransferFrom(address,address,uint256)": {
        "details": "See {IERC721-safeTransferFrom}."
      },
      "safeTransferFrom(address,address,uint256,bytes)": {
        "details": "See {IERC721-safeTransferFrom}."
      },
      "setApprovalForAll(address,bool)": {
        "details": "See {IERC721-setApprovalForAll}."
      },
      "supportsInterface(bytes4)": {
        "details": "See {IERC165-supportsInterface}."
      },
      "symbol()": {
        "details": "See {IERC721Metadata-symbol}."
      },
      "tokenURI(uint256)": {
        "details": "See {IERC721Metadata-tokenURI}."
      },
      "transferFrom(address,address,uint256)": {
        "details": "See {IERC721-transferFrom}."
      }
    },
    "version": 1
  },
  "userdoc": {
    "kind": "user",
    "methods": {},
    "version": 1
  }
}