{
  "contractName": "SimpleNFTCustodian",
  "abi": [
    {
      "inputs": [],
      "name": "simpleNFT",
      "outputs": [
        {
          "internalType": "contract SimpleNFT",
          "name": "",
          "type": "address"
        }
      ],
      "stateMutability": "view",
      "type": "function",
      "constant": true
    },
    {
      "inputs": [
        {
          "internalType": "contract SimpleNFT",
          "name": "instanceAddress",
          "type": "address"
        }
      ],
      "name": "setSimpleNFTAddress",
      "outputs": [],
      "stateMutability": "nonpayable",
      "type": "function"
    },
    {
      "inputs": [
        {
          "internalType": "uint256",
          "name": "nftId",
          "type": "uint256"
        }
      ],
      "name": "buyNft",
      "outputs": [],
      "stateMutability": "payable",
      "type": "function",
      "payable": true
    }
  ],
  "bytecode": "0x608060405234801561001057600080fd5b506106a9806100206000396000f3fe6080604052600436106100345760003560e01c8063099230d414610039578063243adbdd14610062578063dc4457751461007e575b600080fd5b34801561004557600080fd5b50610060600480360381019061005b9190610462565b6100a9565b005b61007c6004803603810190610077919061048b565b6100ec565b005b34801561008a57600080fd5b506100936103c1565b6040516100a09190610550565b60405180910390f35b806000806101000a81548173ffffffffffffffffffffffffffffffffffffffff021916908373ffffffffffffffffffffffffffffffffffffffff16021790555050565b60008060009054906101000a900473ffffffffffffffffffffffffffffffffffffffff1673ffffffffffffffffffffffffffffffffffffffff1663f8eb5fc5836040518263ffffffff1660e01b8152600401610148919061056b565b60206040518083038186803b15801561016057600080fd5b505afa158015610174573d6000803e3d6000fd5b505050506040513d601f19601f8201168201806040525081019061019891906104b4565b90506000349050818110156101ac57600080fd5b60008060009054906101000a900473ffffffffffffffffffffffffffffffffffffffff1673ffffffffffffffffffffffffffffffffffffffff16636352211e856040518263ffffffff1660e01b8152600401610208919061056b565b60206040518083038186803b15801561022057600080fd5b505afa158015610234573d6000803e3d6000fd5b505050506040513d601f19601f820116820180604052508101906102589190610439565b90508073ffffffffffffffffffffffffffffffffffffffff166108fc839081150290604051600060405180830381858888f193505050501580156102a0573d6000803e3d6000fd5b5060008054906101000a900473ffffffffffffffffffffffffffffffffffffffff1673ffffffffffffffffffffffffffffffffffffffff1663d11eccd68233876040518463ffffffff1660e01b81526004016102fe93929190610519565b600060405180830381600087803b15801561031857600080fd5b505af115801561032c573d6000803e3d6000fd5b5050505060008054906101000a900473ffffffffffffffffffffffffffffffffffffffff1673ffffffffffffffffffffffffffffffffffffffff16632931a108856040518263ffffffff1660e01b8152600401610389919061056b565b600060405180830381600087803b1580156103a357600080fd5b505af11580156103b7573d6000803e3d6000fd5b5050505050505050565b60008054906101000a900473ffffffffffffffffffffffffffffffffffffffff1681565b6000815190506103f48161062e565b92915050565b60008135905061040981610645565b92915050565b60008135905061041e8161065c565b92915050565b6000815190506104338161065c565b92915050565b60006020828403121561044b57600080fd5b6000610459848285016103e5565b91505092915050565b60006020828403121561047457600080fd5b6000610482848285016103fa565b91505092915050565b60006020828403121561049d57600080fd5b60006104ab8482850161040f565b91505092915050565b6000602082840312156104c657600080fd5b60006104d484828501610424565b91505092915050565b6104e6816105d4565b82525050565b6104f581610586565b82525050565b610504816105e6565b82525050565b610513816105ca565b82525050565b600060608201905061052e60008301866104dd565b61053b60208301856104ec565b610548604083018461050a565b949350505050565b600060208201905061056560008301846104fb565b92915050565b6000602082019050610580600083018461050a565b92915050565b6000610591826105aa565b9050919050565b60006105a382610586565b9050919050565b600073ffffffffffffffffffffffffffffffffffffffff82169050919050565b6000819050919050565b60006105df8261060a565b9050919050565b60006105f1826105f8565b9050919050565b6000610603826105aa565b9050919050565b60006106158261061c565b9050919050565b6000610627826105aa565b9050919050565b61063781610586565b811461064257600080fd5b50565b61064e81610598565b811461065957600080fd5b50565b610665816105ca565b811461067057600080fd5b5056fea264697066735822122068e750c2007386e01662d600fd4f398c54dd7124af8d99886246d29209875bf264736f6c63430008040033",
  "immutableReferences": {},
  "source": "// SPDX-License-Identifier: MIT\r\npragma solidity 0.8.4;\r\n\r\nimport \"./SimpleNFT.sol\";\r\n\r\ncontract SimpleNFTCustodian {\r\n\r\n    SimpleNFT public simpleNFT;\r\n\r\n    function setSimpleNFTAddress(SimpleNFT instanceAddress) public {\r\n        simpleNFT = instanceAddress;\r\n    }\r\n\r\n    function buyNft(uint256 nftId) public payable {\r\n        uint salePrice = simpleNFT.getSalePrice(nftId);\r\n        uint amountPaid = msg.value;\r\n\r\n        require(amountPaid >= salePrice);\r\n\r\n        address payable currentOwner = payable(simpleNFT.ownerOf(nftId));\r\n\r\n        currentOwner.transfer(amountPaid);\r\n        simpleNFT.transferNft(currentOwner, msg.sender, nftId);\r\n        simpleNFT.markAsSold(nftId);\r\n    }\r\n}\r\n",
  "sourcePath": "D:/Alvin/blockchain/simple-nft/contracts/SimpleNFTCustodian.sol",
  "compiler": {
    "name": "solc",
    "version": "0.8.4+commit.c7e474f2.Emscripten.clang"
  },
  "schemaVersion": "3.2.3",
  "updatedAt": "2021-11-14T05:02:19.936Z",
  "networkType": "ethereum",
  "devdoc": {
    "kind": "dev",
    "methods": {},
    "version": 1
  },
  "userdoc": {
    "kind": "user",
    "methods": {},
    "version": 1
  }
}